{
  "_format": "hh-sol-artifact-1",
  "contractName": "CreatorConnectEscrow",
  "sourceName": "contracts/CreatorConnectEscrow.sol",
  "abi": [
    {
      "inputs": [
        {
          "internalType": "address",
          "name": "_mneeToken",
          "type": "address"
        },
        {
          "internalType": "address",
          "name": "_verifierAgent",
          "type": "address"
        }
      ],
      "stateMutability": "nonpayable",
      "type": "constructor"
    },
    {
      "inputs": [
        {
          "internalType": "address",
          "name": "owner",
          "type": "address"
        }
      ],
      "name": "OwnableInvalidOwner",
      "type": "error"
    },
    {
      "inputs": [
        {
          "internalType": "address",
          "name": "account",
          "type": "address"
        }
      ],
      "name": "OwnableUnauthorizedAccount",
      "type": "error"
    },
    {
      "inputs": [],
      "name": "ReentrancyGuardReentrantCall",
      "type": "error"
    },
    {
      "inputs": [
        {
          "internalType": "address",
          "name": "token",
          "type": "address"
        }
      ],
      "name": "SafeERC20FailedOperation",
      "type": "error"
    },
    {
      "anonymous": false,
      "inputs": [
        {
          "indexed": true,
          "internalType": "uint256",
          "name": "campaignId",
          "type": "uint256"
        },
        {
          "indexed": true,
          "internalType": "address",
          "name": "brand",
          "type": "address"
        },
        {
          "indexed": false,
          "internalType": "uint256",
          "name": "rewardPerCreator",
          "type": "uint256"
        }
      ],
      "name": "CampaignCreated",
      "type": "event"
    },
    {
      "anonymous": false,
      "inputs": [
        {
          "indexed": true,
          "internalType": "uint256",
          "name": "campaignId",
          "type": "uint256"
        },
        {
          "indexed": false,
          "internalType": "uint256",
          "name": "amount",
          "type": "uint256"
        }
      ],
      "name": "CampaignFunded",
      "type": "event"
    },
    {
      "anonymous": false,
      "inputs": [
        {
          "indexed": true,
          "internalType": "uint256",
          "name": "campaignId",
          "type": "uint256"
        },
        {
          "indexed": true,
          "internalType": "address",
          "name": "creator",
          "type": "address"
        }
      ],
      "name": "CreatorEnrolled",
      "type": "event"
    },
    {
      "anonymous": false,
      "inputs": [
        {
          "indexed": true,
          "internalType": "address",
          "name": "previousOwner",
          "type": "address"
        },
        {
          "indexed": true,
          "internalType": "address",
          "name": "newOwner",
          "type": "address"
        }
      ],
      "name": "OwnershipTransferred",
      "type": "event"
    },
    {
      "anonymous": false,
      "inputs": [
        {
          "indexed": true,
          "internalType": "uint256",
          "name": "campaignId",
          "type": "uint256"
        },
        {
          "indexed": true,
          "internalType": "address",
          "name": "creator",
          "type": "address"
        },
        {
          "indexed": false,
          "internalType": "uint256",
          "name": "amount",
          "type": "uint256"
        }
      ],
      "name": "PaymentReleased",
      "type": "event"
    },
    {
      "anonymous": false,
      "inputs": [
        {
          "indexed": true,
          "internalType": "uint256",
          "name": "campaignId",
          "type": "uint256"
        },
        {
          "indexed": true,
          "internalType": "address",
          "name": "creator",
          "type": "address"
        },
        {
          "indexed": false,
          "internalType": "bool",
          "name": "success",
          "type": "bool"
        }
      ],
      "name": "SubmissionVerified",
      "type": "event"
    },
    {
      "inputs": [
        {
          "internalType": "uint256",
          "name": "",
          "type": "uint256"
        },
        {
          "internalType": "uint256",
          "name": "",
          "type": "uint256"
        }
      ],
      "name": "campaignEnrollments",
      "outputs": [
        {
          "internalType": "address",
          "name": "creator",
          "type": "address"
        },
        {
          "internalType": "string",
          "name": "submissionUrl",
          "type": "string"
        },
        {
          "internalType": "bool",
          "name": "isVerified",
          "type": "bool"
        },
        {
          "internalType": "bool",
          "name": "isPaid",
          "type": "bool"
        },
        {
          "internalType": "uint256",
          "name": "joinedAt",
          "type": "uint256"
        }
      ],
      "stateMutability": "view",
      "type": "function"
    },
    {
      "inputs": [
        {
          "internalType": "uint256",
          "name": "",
          "type": "uint256"
        }
      ],
      "name": "campaigns",
      "outputs": [
        {
          "internalType": "uint256",
          "name": "id",
          "type": "uint256"
        },
        {
          "internalType": "address",
          "name": "brand",
          "type": "address"
        },
        {
          "internalType": "string",
          "name": "details",
          "type": "string"
        },
        {
          "internalType": "uint256",
          "name": "rewardPerCreator",
          "type": "uint256"
        },
        {
          "internalType": "uint256",
          "name": "maxCreators",
          "type": "uint256"
        },
        {
          "internalType": "uint256",
          "name": "totalDeposited",
          "type": "uint256"
        },
        {
          "internalType": "uint256",
          "name": "totalPaid",
          "type": "uint256"
        },
        {
          "internalType": "bool",
          "name": "isActive",
          "type": "bool"
        },
        {
          "internalType": "uint256",
          "name": "createdAt",
          "type": "uint256"
        }
      ],
      "stateMutability": "view",
      "type": "function"
    },
    {
      "inputs": [
        {
          "internalType": "string",
          "name": "_details",
          "type": "string"
        },
        {
          "internalType": "uint256",
          "name": "_rewardPerCreator",
          "type": "uint256"
        },
        {
          "internalType": "uint256",
          "name": "_maxCreators",
          "type": "uint256"
        }
      ],
      "name": "createCampaign",
      "outputs": [
        {
          "internalType": "uint256",
          "name": "",
          "type": "uint256"
        }
      ],
      "stateMutability": "nonpayable",
      "type": "function"
    },
    {
      "inputs": [
        {
          "internalType": "uint256",
          "name": "_campaignId",
          "type": "uint256"
        }
      ],
      "name": "enroll",
      "outputs": [],
      "stateMutability": "nonpayable",
      "type": "function"
    },
    {
      "inputs": [
        {
          "internalType": "uint256",
          "name": "_campaignId",
          "type": "uint256"
        }
      ],
      "name": "getCampaignEnrollments",
      "outputs": [
        {
          "components": [
            {
              "internalType": "address",
              "name": "creator",
              "type": "address"
            },
            {
              "internalType": "string",
              "name": "submissionUrl",
              "type": "string"
            },
            {
              "internalType": "bool",
              "name": "isVerified",
              "type": "bool"
            },
            {
              "internalType": "bool",
              "name": "isPaid",
              "type": "bool"
            },
            {
              "internalType": "uint256",
              "name": "joinedAt",
              "type": "uint256"
            }
          ],
          "internalType": "struct CreatorConnectEscrow.Enrollment[]",
          "name": "",
          "type": "tuple[]"
        }
      ],
      "stateMutability": "view",
      "type": "function"
    },
    {
      "inputs": [
        {
          "internalType": "uint256",
          "name": "",
          "type": "uint256"
        },
        {
          "internalType": "address",
          "name": "",
          "type": "address"
        }
      ],
      "name": "hasEnrolled",
      "outputs": [
        {
          "internalType": "bool",
          "name": "",
          "type": "bool"
        }
      ],
      "stateMutability": "view",
      "type": "function"
    },
    {
      "inputs": [],
      "name": "mneeToken",
      "outputs": [
        {
          "internalType": "contract IERC20",
          "name": "",
          "type": "address"
        }
      ],
      "stateMutability": "view",
      "type": "function"
    },
    {
      "inputs": [],
      "name": "nextCampaignId",
      "outputs": [
        {
          "internalType": "uint256",
          "name": "",
          "type": "uint256"
        }
      ],
      "stateMutability": "view",
      "type": "function"
    },
    {
      "inputs": [],
      "name": "owner",
      "outputs": [
        {
          "internalType": "address",
          "name": "",
          "type": "address"
        }
      ],
      "stateMutability": "view",
      "type": "function"
    },
    {
      "inputs": [],
      "name": "renounceOwnership",
      "outputs": [],
      "stateMutability": "nonpayable",
      "type": "function"
    },
    {
      "inputs": [
        {
          "internalType": "uint256",
          "name": "_campaignId",
          "type": "uint256"
        },
        {
          "internalType": "string",
          "name": "_url",
          "type": "string"
        }
      ],
      "name": "submitContent",
      "outputs": [],
      "stateMutability": "nonpayable",
      "type": "function"
    },
    {
      "inputs": [
        {
          "internalType": "address",
          "name": "newOwner",
          "type": "address"
        }
      ],
      "name": "transferOwnership",
      "outputs": [],
      "stateMutability": "nonpayable",
      "type": "function"
    },
    {
      "inputs": [
        {
          "internalType": "address",
          "name": "_newVerifier",
          "type": "address"
        }
      ],
      "name": "updateVerifier",
      "outputs": [],
      "stateMutability": "nonpayable",
      "type": "function"
    },
    {
      "inputs": [],
      "name": "verifierAgent",
      "outputs": [
        {
          "internalType": "address",
          "name": "",
          "type": "address"
        }
      ],
      "stateMutability": "view",
      "type": "function"
    },
    {
      "inputs": [
        {
          "internalType": "uint256",
          "name": "_campaignId",
          "type": "uint256"
        },
        {
          "internalType": "address",
          "name": "_creator",
          "type": "address"
        },
        {
          "internalType": "bool",
          "name": "_isValid",
          "type": "bool"
        }
      ],
      "name": "verifyAndRelease",
      "outputs": [],
      "stateMutability": "nonpayable",
      "type": "function"
    }
  ],
  "bytecode": "0x60806040523480156200001157600080fd5b5060405162002bfa38038062002bfa833981810160405281019062000037919062000281565b336001600081905550600073ffffffffffffffffffffffffffffffffffffffff168173ffffffffffffffffffffffffffffffffffffffff1603620000b55760006040517f1e4fbdf7000000000000000000000000000000000000000000000000000000008152600401620000ac9190620002d9565b60405180910390fd5b620000c6816200015160201b60201c565b5081600260006101000a81548173ffffffffffffffffffffffffffffffffffffffff021916908373ffffffffffffffffffffffffffffffffffffffff16021790555080600360006101000a81548173ffffffffffffffffffffffffffffffffffffffff021916908373ffffffffffffffffffffffffffffffffffffffff1602179055505050620002f6565b6000600160009054906101000a900473ffffffffffffffffffffffffffffffffffffffff16905081600160006101000a81548173ffffffffffffffffffffffffffffffffffffffff021916908373ffffffffffffffffffffffffffffffffffffffff1602179055508173ffffffffffffffffffffffffffffffffffffffff168173ffffffffffffffffffffffffffffffffffffffff167f8be0079c531659141344cd1fd0a4f28419497f9722a3daafe3b4186f6b6457e060405160405180910390a35050565b600080fd5b600073ffffffffffffffffffffffffffffffffffffffff82169050919050565b600062000249826200021c565b9050919050565b6200025b816200023c565b81146200026757600080fd5b50565b6000815190506200027b8162000250565b92915050565b600080604083850312156200029b576200029a62000217565b5b6000620002ab858286016200026a565b9250506020620002be858286016200026a565b9150509250929050565b620002d3816200023c565b82525050565b6000602082019050620002f06000830184620002c8565b92915050565b6128f480620003066000396000f3fe608060405234801561001057600080fd5b50600436106100f55760003560e01c80637dbcad3511610097578063c331dfdb11610066578063c331dfdb1461027c578063e08071d9146102b0578063f2fde38b146102cc578063f57d585b146102e8576100f5565b80637dbcad35146101f45780638da5cb5b1461022457806397fc007c14610242578063b75e58901461025e576100f5565b80635b71474a116100d35780635b71474a146101925780636777671a146101b0578063715018a6146101cc5780637903a756146101d6576100f5565b8063141961bc146100fa5780633020580b146101325780633ce0ff5914610162575b600080fd5b610114600480360381019061010f9190611806565b610304565b6040516101299998979695949392919061192e565b60405180910390f35b61014c60048036038101906101479190611af7565b610407565b6040516101599190611b66565b60405180910390f35b61017c60048036038101906101779190611806565b6106d6565b6040516101899190611d30565b60405180910390f35b61019a610870565b6040516101a79190611db1565b60405180910390f35b6101ca60048036038101906101c59190611e24565b610896565b005b6101d4610c9c565b005b6101de610cb0565b6040516101eb9190611b66565b60405180910390f35b61020e60048036038101906102099190611e77565b610cb6565b60405161021b9190611eb7565b60405180910390f35b61022c610ce5565b6040516102399190611ed2565b60405180910390f35b61025c60048036038101906102579190611eed565b610d0f565b005b610266610d5b565b6040516102739190611ed2565b60405180910390f35b61029660048036038101906102919190611f1a565b610d81565b6040516102a7959493929190611f5a565b60405180910390f35b6102ca60048036038101906102c59190611fb4565b610e96565b005b6102e660048036038101906102e19190611eed565b611092565b005b61030260048036038101906102fd9190611806565b611118565b005b60056020528060005260406000206000915090508060000154908060010160009054906101000a900473ffffffffffffffffffffffffffffffffffffffff16908060020180546103539061203f565b80601f016020809104026020016040519081016040528092919081815260200182805461037f9061203f565b80156103cc5780601f106103a1576101008083540402835291602001916103cc565b820191906000526020600020905b8154815290600101906020018083116103af57829003601f168201915b5050505050908060030154908060040154908060050154908060060154908060070160009054906101000a900460ff16908060080154905089565b6000610411611458565b60008311610454576040517f08c379a000000000000000000000000000000000000000000000000000000000815260040161044b906120bc565b60405180910390fd5b60008211610497576040517f08c379a000000000000000000000000000000000000000000000000000000000815260040161048e90612128565b60405180910390fd5b600082846104a59190612177565b90506104f6333083600260009054906101000a900473ffffffffffffffffffffffffffffffffffffffff1673ffffffffffffffffffffffffffffffffffffffff1661149e909392919063ffffffff16565b60006004600081548092919061050b906121b9565b9190505590506040518061012001604052808281526020013373ffffffffffffffffffffffffffffffffffffffff1681526020018781526020018681526020018581526020018381526020016000815260200160011515815260200142815250600560008381526020019081526020016000206000820151816000015560208201518160010160006101000a81548173ffffffffffffffffffffffffffffffffffffffff021916908373ffffffffffffffffffffffffffffffffffffffff16021790555060408201518160020190816105e491906123a3565b50606082015181600301556080820151816004015560a0820151816005015560c0820151816006015560e08201518160070160006101000a81548160ff02191690831515021790555061010082015181600801559050503373ffffffffffffffffffffffffffffffffffffffff16817f63e3678c8493a16f8ba43ae9e547231762ca04526dac2c388bd2c26d89401851876040516106829190611b66565b60405180910390a3807f318daf69d77e946364e804495b2184222324b99fddeb42ab5fd25a919f596e8c836040516106ba9190611b66565b60405180910390a280925050506106cf611520565b9392505050565b606060066000838152602001908152602001600020805480602002602001604051908101604052809291908181526020016000905b8282101561086557838290600052602060002090600402016040518060a00160405290816000820160009054906101000a900473ffffffffffffffffffffffffffffffffffffffff1673ffffffffffffffffffffffffffffffffffffffff1673ffffffffffffffffffffffffffffffffffffffff1681526020016001820180546107949061203f565b80601f01602080910402602001604051908101604052809291908181526020018280546107c09061203f565b801561080d5780601f106107e25761010080835404028352916020019161080d565b820191906000526020600020905b8154815290600101906020018083116107f057829003601f168201915b505050505081526020016002820160009054906101000a900460ff161515151581526020016002820160019054906101000a900460ff161515151581526020016003820154815250508152602001906001019061070b565b505050509050919050565b600260009054906101000a900473ffffffffffffffffffffffffffffffffffffffff1681565b600360009054906101000a900473ffffffffffffffffffffffffffffffffffffffff1673ffffffffffffffffffffffffffffffffffffffff163373ffffffffffffffffffffffffffffffffffffffff1614610926576040517f08c379a000000000000000000000000000000000000000000000000000000000815260040161091d906124e7565b60405180910390fd5b61092e611458565b60006005600085815260200190815260200160002090508060070160009054906101000a900460ff16610996576040517f08c379a000000000000000000000000000000000000000000000000000000000815260040161098d90612553565b60405180910390fd5b600060066000868152602001908152602001600020905060005b8180549050811015610c53578473ffffffffffffffffffffffffffffffffffffffff168282815481106109e6576109e5612573565b5b906000526020600020906004020160000160009054906101000a900473ffffffffffffffffffffffffffffffffffffffff1673ffffffffffffffffffffffffffffffffffffffff1603610c4057818181548110610a4657610a45612573565b5b906000526020600020906004020160020160019054906101000a900460ff1615610aa5576040517f08c379a0000000000000000000000000000000000000000000000000000000008152600401610a9c906125ee565b60405180910390fd5b8315610be9576001828281548110610ac057610abf612573565b5b906000526020600020906004020160020160006101000a81548160ff0219169083151502179055506001828281548110610afd57610afc612573565b5b906000526020600020906004020160020160016101000a81548160ff0219169083151502179055508260030154836006016000828254610b3d919061260e565b92505081905550610b95858460030154600260009054906101000a900473ffffffffffffffffffffffffffffffffffffffff1673ffffffffffffffffffffffffffffffffffffffff1661152a9092919063ffffffff16565b8473ffffffffffffffffffffffffffffffffffffffff16867f21d71db5be59bb9fa133895586b7404307dd33fb93b16db09dc6f1d9d7d231b08560030154604051610be09190611b66565b60405180910390a35b8473ffffffffffffffffffffffffffffffffffffffff16867f174113f48394b73d1e46d2a0e4a483f2efb16f0d1265c3fd1b5279667cdf4af386604051610c309190611eb7565b60405180910390a3505050610c8f565b8080610c4b906121b9565b9150506109b0565b506040517f08c379a0000000000000000000000000000000000000000000000000000000008152600401610c869061268e565b60405180910390fd5b610c97611520565b505050565b610ca46115a9565b610cae6000611630565b565b60045481565b60076020528160005260406000206020528060005260406000206000915091509054906101000a900460ff1681565b6000600160009054906101000a900473ffffffffffffffffffffffffffffffffffffffff16905090565b610d176115a9565b80600360006101000a81548173ffffffffffffffffffffffffffffffffffffffff021916908373ffffffffffffffffffffffffffffffffffffffff16021790555050565b600360009054906101000a900473ffffffffffffffffffffffffffffffffffffffff1681565b60066020528160005260406000208181548110610d9d57600080fd5b9060005260206000209060040201600091509150508060000160009054906101000a900473ffffffffffffffffffffffffffffffffffffffff1690806001018054610de79061203f565b80601f0160208091040260200160405190810160405280929190818152602001828054610e139061203f565b8015610e605780601f10610e3557610100808354040283529160200191610e60565b820191906000526020600020905b815481529060010190602001808311610e4357829003601f168201915b5050505050908060020160009054906101000a900460ff16908060020160019054906101000a900460ff16908060030154905085565b6007600083815260200190815260200160002060003373ffffffffffffffffffffffffffffffffffffffff1673ffffffffffffffffffffffffffffffffffffffff16815260200190815260200160002060009054906101000a900460ff16610f33576040517f08c379a0000000000000000000000000000000000000000000000000000000008152600401610f2a906126fa565b60405180910390fd5b600060066000848152602001908152602001600020905060005b818054905081101561108c573373ffffffffffffffffffffffffffffffffffffffff16828281548110610f8357610f82612573565b5b906000526020600020906004020160000160009054906101000a900473ffffffffffffffffffffffffffffffffffffffff1673ffffffffffffffffffffffffffffffffffffffff160361107957818181548110610fe357610fe2612573565b5b906000526020600020906004020160020160009054906101000a900460ff1615611042576040517f08c379a000000000000000000000000000000000000000000000000000000000815260040161103990612766565b60405180910390fd5b8282828154811061105657611055612573565b5b9060005260206000209060040201600101908161107391906123a3565b5061108c565b8080611084906121b9565b915050610f4d565b50505050565b61109a6115a9565b600073ffffffffffffffffffffffffffffffffffffffff168173ffffffffffffffffffffffffffffffffffffffff160361110c5760006040517f1e4fbdf70000000000000000000000000000000000000000000000000000000081526004016111039190611ed2565b60405180910390fd5b61111581611630565b50565b60006005600083815260200190815260200160002090508060070160009054906101000a900460ff16611180576040517f08c379a000000000000000000000000000000000000000000000000000000000815260040161117790612553565b60405180910390fd5b6007600083815260200190815260200160002060003373ffffffffffffffffffffffffffffffffffffffff1673ffffffffffffffffffffffffffffffffffffffff16815260200190815260200160002060009054906101000a900460ff161561121e576040517f08c379a0000000000000000000000000000000000000000000000000000000008152600401611215906127d2565b60405180910390fd5b806004015460066000848152602001908152602001600020805490501061127a576040517f08c379a00000000000000000000000000000000000000000000000000000000081526004016112719061283e565b60405180910390fd5b611283826116f6565b6040518060a001604052803373ffffffffffffffffffffffffffffffffffffffff16815260200160405180602001604052806000815250815260200160001515815260200160001515815260200142815250908060018154018082558091505060019003906000526020600020906004020160009091909190915060008201518160000160006101000a81548173ffffffffffffffffffffffffffffffffffffffff021916908373ffffffffffffffffffffffffffffffffffffffff160217905550602082015181600101908161135a91906123a3565b5060408201518160020160006101000a81548160ff02191690831515021790555060608201518160020160016101000a81548160ff02191690831515021790555060808201518160030155505060016007600084815260200190815260200160002060003373ffffffffffffffffffffffffffffffffffffffff1673ffffffffffffffffffffffffffffffffffffffff16815260200190815260200160002060006101000a81548160ff0219169083151502179055503373ffffffffffffffffffffffffffffffffffffffff16827f60826141468c7fa473cb97b87cd1fc3ad3faccdaf4be084b786dbef79874750e60405160405180910390a35050565b600260005403611494576040517f3ee5aeb500000000000000000000000000000000000000000000000000000000815260040160405180910390fd5b6002600081905550565b61151a848573ffffffffffffffffffffffffffffffffffffffff166323b872dd8686866040516024016114d39392919061285e565b604051602081830303815290604052915060e01b6020820180517bffffffffffffffffffffffffffffffffffffffffffffffffffffffff8381831617835250505050611712565b50505050565b6001600081905550565b6115a4838473ffffffffffffffffffffffffffffffffffffffff1663a9059cbb858560405160240161155d929190612895565b604051602081830303815290604052915060e01b6020820180517bffffffffffffffffffffffffffffffffffffffffffffffffffffffff8381831617835250505050611712565b505050565b6115b16117b4565b73ffffffffffffffffffffffffffffffffffffffff166115cf610ce5565b73ffffffffffffffffffffffffffffffffffffffff161461162e576115f26117b4565b6040517f118cdaa70000000000000000000000000000000000000000000000000000000081526004016116259190611ed2565b60405180910390fd5b565b6000600160009054906101000a900473ffffffffffffffffffffffffffffffffffffffff16905081600160006101000a81548173ffffffffffffffffffffffffffffffffffffffff021916908373ffffffffffffffffffffffffffffffffffffffff1602179055508173ffffffffffffffffffffffffffffffffffffffff168173ffffffffffffffffffffffffffffffffffffffff167f8be0079c531659141344cd1fd0a4f28419497f9722a3daafe3b4186f6b6457e060405160405180910390a35050565b6000600660008381526020019081526020016000209050919050565b600080602060008451602086016000885af180611735576040513d6000823e3d81fd5b3d92506000519150506000821461175057600181141561176c565b60008473ffffffffffffffffffffffffffffffffffffffff163b145b156117ae57836040517f5274afe70000000000000000000000000000000000000000000000000000000081526004016117a59190611ed2565b60405180910390fd5b50505050565b600033905090565b6000604051905090565b600080fd5b600080fd5b6000819050919050565b6117e3816117d0565b81146117ee57600080fd5b50565b600081359050611800816117da565b92915050565b60006020828403121561181c5761181b6117c6565b5b600061182a848285016117f1565b91505092915050565b61183c816117d0565b82525050565b600073ffffffffffffffffffffffffffffffffffffffff82169050919050565b600061186d82611842565b9050919050565b61187d81611862565b82525050565b600081519050919050565b600082825260208201905092915050565b60005b838110156118bd5780820151818401526020810190506118a2565b60008484015250505050565b6000601f19601f8301169050919050565b60006118e582611883565b6118ef818561188e565b93506118ff81856020860161189f565b611908816118c9565b840191505092915050565b60008115159050919050565b61192881611913565b82525050565b600061012082019050611944600083018c611833565b611951602083018b611874565b8181036040830152611963818a6118da565b90506119726060830189611833565b61197f6080830188611833565b61198c60a0830187611833565b61199960c0830186611833565b6119a660e083018561191f565b6119b4610100830184611833565b9a9950505050505050505050565b600080fd5b600080fd5b7f4e487b7100000000000000000000000000000000000000000000000000000000600052604160045260246000fd5b611a04826118c9565b810181811067ffffffffffffffff82111715611a2357611a226119cc565b5b80604052505050565b6000611a366117bc565b9050611a4282826119fb565b919050565b600067ffffffffffffffff821115611a6257611a616119cc565b5b611a6b826118c9565b9050602081019050919050565b82818337600083830152505050565b6000611a9a611a9584611a47565b611a2c565b905082815260208101848484011115611ab657611ab56119c7565b5b611ac1848285611a78565b509392505050565b600082601f830112611ade57611add6119c2565b5b8135611aee848260208601611a87565b91505092915050565b600080600060608486031215611b1057611b0f6117c6565b5b600084013567ffffffffffffffff811115611b2e57611b2d6117cb565b5b611b3a86828701611ac9565b9350506020611b4b868287016117f1565b9250506040611b5c868287016117f1565b9150509250925092565b6000602082019050611b7b6000830184611833565b92915050565b600081519050919050565b600082825260208201905092915050565b6000819050602082019050919050565b611bb681611862565b82525050565b600082825260208201905092915050565b6000611bd882611883565b611be28185611bbc565b9350611bf281856020860161189f565b611bfb816118c9565b840191505092915050565b611c0f81611913565b82525050565b611c1e816117d0565b82525050565b600060a083016000830151611c3c6000860182611bad565b5060208301518482036020860152611c548282611bcd565b9150506040830151611c696040860182611c06565b506060830151611c7c6060860182611c06565b506080830151611c8f6080860182611c15565b508091505092915050565b6000611ca68383611c24565b905092915050565b6000602082019050919050565b6000611cc682611b81565b611cd08185611b8c565b935083602082028501611ce285611b9d565b8060005b85811015611d1e5784840389528151611cff8582611c9a565b9450611d0a83611cae565b925060208a01995050600181019050611ce6565b50829750879550505050505092915050565b60006020820190508181036000830152611d4a8184611cbb565b905092915050565b6000819050919050565b6000611d77611d72611d6d84611842565b611d52565b611842565b9050919050565b6000611d8982611d5c565b9050919050565b6000611d9b82611d7e565b9050919050565b611dab81611d90565b82525050565b6000602082019050611dc66000830184611da2565b92915050565b611dd581611862565b8114611de057600080fd5b50565b600081359050611df281611dcc565b92915050565b611e0181611913565b8114611e0c57600080fd5b50565b600081359050611e1e81611df8565b92915050565b600080600060608486031215611e3d57611e3c6117c6565b5b6000611e4b868287016117f1565b9350506020611e5c86828701611de3565b9250506040611e6d86828701611e0f565b9150509250925092565b60008060408385031215611e8e57611e8d6117c6565b5b6000611e9c858286016117f1565b9250506020611ead85828601611de3565b9150509250929050565b6000602082019050611ecc600083018461191f565b92915050565b6000602082019050611ee76000830184611874565b92915050565b600060208284031215611f0357611f026117c6565b5b6000611f1184828501611de3565b91505092915050565b60008060408385031215611f3157611f306117c6565b5b6000611f3f858286016117f1565b9250506020611f50858286016117f1565b9150509250929050565b600060a082019050611f6f6000830188611874565b8181036020830152611f8181876118da565b9050611f90604083018661191f565b611f9d606083018561191f565b611faa6080830184611833565b9695505050505050565b60008060408385031215611fcb57611fca6117c6565b5b6000611fd9858286016117f1565b925050602083013567ffffffffffffffff811115611ffa57611ff96117cb565b5b61200685828601611ac9565b9150509250929050565b7f4e487b7100000000000000000000000000000000000000000000000000000000600052602260045260246000fd5b6000600282049050600182168061205757607f821691505b60208210810361206a57612069612010565b5b50919050565b7f526577617264206d757374206265203e20300000000000000000000000000000600082015250565b60006120a660128361188e565b91506120b182612070565b602082019050919050565b600060208201905081810360008301526120d581612099565b9050919050565b7f4d61782063726561746f7273206d757374206265203e20300000000000000000600082015250565b600061211260188361188e565b915061211d826120dc565b602082019050919050565b6000602082019050818103600083015261214181612105565b9050919050565b7f4e487b7100000000000000000000000000000000000000000000000000000000600052601160045260246000fd5b6000612182826117d0565b915061218d836117d0565b925082820261219b816117d0565b915082820484148315176121b2576121b1612148565b5b5092915050565b60006121c4826117d0565b91507fffffffffffffffffffffffffffffffffffffffffffffffffffffffffffffffff82036121f6576121f5612148565b5b600182019050919050565b60008190508160005260206000209050919050565b60006020601f8301049050919050565b600082821b905092915050565b6000600883026122637fffffffffffffffffffffffffffffffffffffffffffffffffffffffffffffffff82612226565b61226d8683612226565b95508019841693508086168417925050509392505050565b60006122a061229b612296846117d0565b611d52565b6117d0565b9050919050565b6000819050919050565b6122ba83612285565b6122ce6122c6826122a7565b848454612233565b825550505050565b600090565b6122e36122d6565b6122ee8184846122b1565b505050565b5b81811015612312576123076000826122db565b6001810190506122f4565b5050565b601f8211156123575761232881612201565b61233184612216565b81016020851015612340578190505b61235461234c85612216565b8301826122f3565b50505b505050565b600082821c905092915050565b600061237a6000198460080261235c565b1980831691505092915050565b60006123938383612369565b9150826002028217905092915050565b6123ac82611883565b67ffffffffffffffff8111156123c5576123c46119cc565b5b6123cf825461203f565b6123da828285612316565b600060209050601f83116001811461240d57600084156123fb578287015190505b6124058582612387565b86555061246d565b601f19841661241b86612201565b60005b828110156124435784890151825560018201915060208501945060208101905061241e565b86831015612460578489015161245c601f891682612369565b8355505b6001600288020188555050505b505050505050565b7f4f6e6c79207665726966696572206167656e742063616e2063616c6c2074686960008201527f7300000000000000000000000000000000000000000000000000000000000000602082015250565b60006124d160218361188e565b91506124dc82612475565b604082019050919050565b60006020820190508181036000830152612500816124c4565b9050919050565b7f43616d706169676e206e6f742061637469766500000000000000000000000000600082015250565b600061253d60138361188e565b915061254882612507565b602082019050919050565b6000602082019050818103600083015261256c81612530565b9050919050565b7f4e487b7100000000000000000000000000000000000000000000000000000000600052603260045260246000fd5b7f416c726561647920706169640000000000000000000000000000000000000000600082015250565b60006125d8600c8361188e565b91506125e3826125a2565b602082019050919050565b60006020820190508181036000830152612607816125cb565b9050919050565b6000612619826117d0565b9150612624836117d0565b925082820190508082111561263c5761263b612148565b5b92915050565b7f43726561746f72206e6f7420666f756e6420696e2063616d706169676e000000600082015250565b6000612678601d8361188e565b915061268382612642565b602082019050919050565b600060208201905081810360008301526126a78161266b565b9050919050565b7f4e6f7420656e726f6c6c65640000000000000000000000000000000000000000600082015250565b60006126e4600c8361188e565b91506126ef826126ae565b602082019050919050565b60006020820190508181036000830152612713816126d7565b9050919050565b7f416c726561647920766572696669656400000000000000000000000000000000600082015250565b600061275060108361188e565b915061275b8261271a565b602082019050919050565b6000602082019050818103600083015261277f81612743565b9050919050565b7f416c726561647920656e726f6c6c656400000000000000000000000000000000600082015250565b60006127bc60108361188e565b91506127c782612786565b602082019050919050565b600060208201905081810360008301526127eb816127af565b9050919050565b7f43616d706169676e2066756c6c00000000000000000000000000000000000000600082015250565b6000612828600d8361188e565b9150612833826127f2565b602082019050919050565b600060208201905081810360008301526128578161281b565b9050919050565b60006060820190506128736000830186611874565b6128806020830185611874565b61288d6040830184611833565b949350505050565b60006040820190506128aa6000830185611874565b6128b76020830184611833565b939250505056fea2646970667358221220451072615642dac3f394e5ffe8c181bd06acb21d761a1acfd3c250baf2bd0a8a64736f6c63430008140033",
  "linkReferences": {},
  "deployedLinkReferences": {}
}